:020000021000EC
:10900000006000201992010001920100039201000A
:109010000592010007920100099201000000000082
:109020000000000000000000000000000B920100A2
:109030000D920100000000000F920100119201004A
:1090400099A601001392010069AA01001392010080
:1090500013920100000000002DA9010013920100ED
:109060001392010013920100139201001392010068
:109070001392010013920100139201001392010058
:109080001392010009B201001392010000000000D8
:109090001392010013920100E5C401001392010034
:1090A0001392010013920100000000000000000074
:1090B00000000000000000000000000000000000B0
:1090C00000000000000000000000000000000000A0
:1090D0000000000000000000000000000000000090
:1090E0000000000000000000000000000000000080
:1090F0000000000000000000000000000000000070
:10910000000000000000000000000000000000005F
:10911000000000000000000000000000000000004F
:10912000000000000000000000000000000000003F
:10913000000000000000000000000000000000002F
:10914000000000000000000000000000000000001F
:10915000000000000000000000000000000000000F
:1091600000000000000000000000000000000000FF
:1091700000000000000000000000000000000000EF
:1091800000000000000000000000000000000000DF
:1091900000000000000000000000000000000000CF
:1091A00000000000000000000000000000000000BF
:1091B00000000000000000000000000000000000AF
:1091C000000000000000000000000000000000009F
:1091D000000000000000000000000000000000008F
:1091E000000000000000000000000000000000007F
:1091F000000000000000000000000000000000006F
:10920000FEE7FEE7FEE7FEE7FEE7FEE7FEE7FEE736
:10921000FEE7FEE700F002B8FFF7FCBF04484FF09E
:109220000701884385460348804700F005B80000E1
:10923000006000203D9A010039493A480A1A02D0DC
:10924000072291438D46384938480A1A06D007222A
:10925000914381F30988022282F314883448354906
:10926000354A00F03FF835483549364A00F03AF8BB
:1092700035483649364A00F035F836483649374AD7
:1092800000F030F836483749374A00F02BF83748B5
:109290003749384A00F026F837483849384A00F04C
:1092A00021F838483849002200F034F83748384966
:1092B000002200F02FF837483749091A03F07AFBEB
:1092C00025482649884205D00268043003B49047F7
:1092D00003BCF7E700208646EC46002000212F4A19
:1092E0009047FEE7884214D0521A12D003460B432F
:1092F00013430324234206D1036804300B60043176
:10930000043AF9D17047037801300B700131013A0A
:10931000F9D17047884202D002700130FAE77047F5
:109320000060002000580020006000200060002045
:1093300004D80100C8220020B8230020A093010017
:10934000A0930100BCCA010004D80100C82200207B
:10935000C8220020B8CB0100B8CB0100B8CB010077
:10936000B8CB0100B8CB0100B8CB0100B8CB0100ED
:10937000B8CB010001D80100F4D80100B8230020C7
:10938000B8230020B8230020682C0020682C00207F
:10939000682C0020682C0020683400200195010012
:1093A00076DF70477FDF70478FDF7047B1DF704730
:1093B00033DF70474FF0A0434FF48042C3F80825D5
:1093C000704700004FF0A0434FF48042C3F80C25D3
:1093D000024800224FF4005101F06EBC0823002027
:1093E0000388212B13B504463FD007D8112B2DD06D
:1093F000132B46D0102B0CD002B010BD522B48D0EE
:10940000562B01D03B2BF7D1A0881321FFF7C8FFC3
:1094100015E0244B24482549C01AC008000440F038
:10942000030002F0FDFD072000F074FA08B101F01E
:1094300021FB1F4BA1881F48198000F055FF002811
:10944000DAD002B0BDE8104001F014BB154B16484D
:109450001949C01AC008000440F0030002F0E0FD02
:10946000134B4FF6FF721A80C6E700238088ADF8D1
:10947000043001A9FFF798FF0028BDD001F0FAFAE7
:10948000BAE70B4800231A4685210088FFF78AFFB8
:10949000D5E7074800231A4619460088FFF786FFDC
:1094A000CDE700BF30CB010050CB0100B8CB0100AD
:1094B00028230020B0240020C2CB01004FF0A0439D
:1094C000D3F81025D20604D52022C3F80825FFF7CB
:1094D0006FBF704708B54FF0A043D3F81035C340B5
:1094E000DB070AD50548002240F2666101F0E4FB83
:1094F00018B1BDE8084001F0BDBA08BDC82200207F
:109500004FF0A04307B503224FF48011C3F8502752
:10951000C3F808152021C3F81427C3F80C150C2133
:10952000C3F85417C3F838274FF48042C3F808250E
:1095300001F07EFB08B101F09DFA294A294801217A
:1095400001F0A8FB08B101F095FA274A274800214D
:1095500001F0A0FB08B101F08DFA254A2548002151
:1095600001F098FB08B101F085FA234800224FF082
:10957000616101F0A1FB08B101F07CFA02F05AFF31
:1095800008B101F077FA002301A90120019302F04C
:10959000E3FF08B101F06EFA01A803F09BF808B1EF
:1095A00001F068FA01F0C8F808B101F063FA134B52
:1095B0001A88ADF804209B78114A8DF8063001A96D
:1095C000042001F0F3F808B101F054FA012104205D
:1095D00001F068F902F0E0FB0028FBD130BFF9E7A9
:1095E000C5930100D4CB0100B5930100D8CB010095
:1095F000BD940100D0CB0100E8220020DCCB0100AB
:10960000D5940100054A4FF0A043125CD3F804350D
:1096100023FA02F0C04300F001007047DFCB0100E5
:10962000044B1A5C012393404FF0A042C2F80C3562
:10963000704700BFDFCB0100044B1A5C012393404D
:109640004FF0A042C2F80835704700BFDFCB0100E1
:1096500008B50020FFF7F0FF0120FFF7EDFF022023
:10966000FFF7EAFFBDE808400320FFF7E5BF08B5B4
:109670000020FFF7D5FF0120FFF7D2FF0220FFF700
:10968000CFFFBDE808400320FFF7CABF074A4FF0ED
:10969000A041105CD1F804350122824022EA030087
:1096A0001340C1F80805C1F80C357047DFCB010045
:1096B00008B5094B1B7853B10020FFF7BDFF01200F
:1096C000FFF7BAFFBDE808400320FFF7B5BFBDE8CC
:1096D0000840FFF7BDBF00BFDC240020F8B5884D6F
:1096E0002B7804461BB100232B70FFF7E1FF172CEA
:1096F00000F2A280DFE814F01800230023004E00DF
:109700006E007F0090009A00A200A700A200A700B0
:10971000AF00B400B400B400B400B400DE00E30055
:10972000EB00F300FE00FE00FFF7C2FF754801F0FA
:10973000F3FA754B002205461A702846F8BD002042
:10974000FFF760FFF0B10020FFF776FF022C0CBF9F
:109750004FF4E1654FF47A656B4B1C7000244FF4B5
:1097600000464FF47A7021464FF4FA620023E5FB7D
:10977000060103F087F822460146BDE8F84061483B
:1097800001F09ABAFFF74CFF022C0CBFC8254FF42A
:10979000C875E1E70020FFF735FFB8B10020FFF7FB
:1097A0004BFF4FF44874584B032200254FF40046FA
:1097B0004FF47A7029461A70E4FB06014FF4FA62FE
:1097C000002303F05FF82A460146D6E7FFF728FF9B
:1097D000C824E8E70020FFF715FF38B10020FFF7A5
:1097E0002BFF4FF47A64484B0422DEE7FFF718FFA3
:1097F0004FF4C874F7E70020FFF704FF48B10020DA
:10980000FFF71AFF404B05221A7040F6CD410022A7
:10981000B3E7FFF705FFF5E70020FFF737FF3A4B07
:1098200006221A70002240F26661A6E70020FFF7C8
:10983000F7FE354B07221A7000257EE701202870BD
:10984000FFF724FFEEE701202870FFF71FFF00223B
:109850004FF4005191E7FFF70AFF2B4B0C22EAE788
:109860002A482B4E01F058FAD4F1110405461CD0B9
:10987000D8B9012C13D0C8235C4329464FF40047C4
:109880004FF47A704FF4FA620023C4FB070102F030
:10989000F9FF2A4601461D4801F00EFA054602204E
:1098A000FFF7BEFE0123337047E70220FFF7C4FE37
:1098B0000023F8E7FFF7FCFE134B1222BBE7FFF78C
:1098C000F7FE0020FFF7ACFE0F4B1322B3E7FFF7C4
:1098D000EFFE0120FFF7A4FE0B4B1422ABE7FFF7CE
:1098E000E7FE0020FFF79CFE0120FFF799FE064BE4
:1098F0001522A0E7FFF7BBFE034B1C709CE700BFDF
:10990000E424002070230020E524002050230020C0
:10991000DC240020044B1B6813F0010301D0FFF787
:10992000DDBE1846704700BFE0240020032811D890
:10993000012A0AD101290FD100F10E02D2B20D4B3A
:1099400000EB40001A54002070470129F7D002298B
:1099500004D049B1072070470022F8E7054B00EB1F
:10996000400003445A70EEE7024B00EB4000034412
:109970009A70E8E7D024002008B5012202210020D7
:10998000FFF7D4FF08B1072810D1072202210120D8
:10999000FFF7CCFF08B1072808D100210A220846AA
:1099A000FFF7C4FF10B1072808BF002008BD000062
:1099B0000388102B10B502D0112B22D010BD194CEA
:1099C0002168D1B901220846FFF7B0FF08B1072886
:1099D0000FD1072202210120FFF7A8FF08B10728B5
:1099E00007D1042202210020FFF7A0FF28B1072899
:1099F00003D00D4B1B6803B19847236801332360E4
:109A0000DCE7084A1368013B1360002BD6D1FFF74F
:109A1000B3FF0028D2D0044B1B68002BCED0BDE88A
:109A200010401847E8240020EC240020024AD2F815
:109A30000034002BFBD0704700E001404FF0805312
:109A400010B5D3F830210F2A5DD1D3F844224FF05E
:109A50008041C2F34232C1F83C250022C1F80C21FA
:109A6000C1F81021C1F83825424AD3F80404C2F8DD
:109A70002005D3F80804C2F82405D3F80C04C2F872
:109A80002805D3F81004C2F82C05D3F81404C2F842
:109A90003005D3F81804C2F83405D3F81C04C2F812
:109AA0004005D3F82004C2F84405D3F82404C2F8D2
:109AB0004805D3F82804C2F84C05D3F82C04C2F8A2
:109AC0005005D3F83004C2F85405D3F83404C2F872
:109AD0006005D3F83804C2F86405D3F83C04C2F832
:109AE0006805D3F84004C2F86C05D3F84434C2F8D2
:109AF0007035D1F80034DB0732D4D1F8E43E43F0BE
:109B00000F03C1F8E43E4FF01023D3F80022002ADF
:109B100003DBD3F80432002B27DA174901234FF077
:109B20001020C1F804351524FFF780FFC0F800426B
:109B3000FFF77CFFC0F80442FFF778FF0023C1F86D
:109B40000435FFF773FFBFF34F8F0C490C4BCA6806
:109B500002F4E0621343CB60BFF34F8F00BFFDE719
:109B60006FF00103C1F80034C7E7064B064A1A60DC
:109B700010BD00BF00C0004000E0014000ED00E06B
:109B80000400FA05902300200090D00330B5C8B13E
:109B9000F2B10024651C8D4206DA1588A54212D860
:109BA00005196D789D420ED1A14211D9005D48B1D1
:109BB000013880B230B10234A3B210FA84F4A14269
:109BC00006DB138030BD055D01352C44A4B2E1E70E
:109BD0000020F7E713B513460022ADF806200DF17B
:109BE00006020446FFF7D2FF10B1BDF8060020447C
:109BF00002B010BD72DF704773DF704738B50122C5
:109C000004460D46B0F8D810D0F8D400FFF7E2FFB4
:109C100000B1057004F13C0204F1D40104F15400D8
:109C2000BDE83840FFF7E6BFF8B5077804460D46B3
:109C3000002F00F0F0800023C0F8EA30C0F8ED30CB
:109C4000C388817000F1EA060BB1012903D0E379E2
:109C500043B1022D06D1636BA3B1012284F8F12038
:109C600008209847334604F1F00113F8012F12B988
:109C70008B42FAD11746013D032D22D8DFE805F0CB
:109C8000050D101284F8F130ECE7A3792BB194F8AC
:109C9000243013B927B1012311E0E37903B16FB97F
:109CA000237A4BB9637A53B10423A370636B53B91E
:109CB000002384F8F33014E00323F6E70223A370B3
:109CC000F6E70023FBE76279002AF1D094F8F2204E
:109CD000002AEDD184F8F420012284F8F320072033
:109CE00098471722002104F13D0002F0B7FEE36A15
:109CF000591E0122022928BF134684F8513094F8D6
:109D0000243084F83C2033B1A36A591E022928BFAD
:109D1000134684F85230A378042B11D8DFE803F0FF
:109D2000610318284600012384F831300023C4F869
:109D3000E430022384F83C3080232664A4F84830C1
:109D4000A378002B51D1636B002B60D100205DE024
:109D5000022384F83130032384F83C302369A4F8CB
:109D600048300023C4F8E430E36826646364E7E71E
:109D700062696264A269A4F8482062797AB194F8B1
:109D8000F22062B994F8F4204AB1022384F85030EA
:109D900004212046FFF732FF0028D1D1052384F8A3
:109DA000313004F1D403C4F8E430C9E7E2696264F5
:109DB000226AA4F848206279002AF0D094F8F220B0
:109DC000002AECD194F8F420002AE8D0022384F889
:109DD000503004212046FFF711FF0028B0D10623A0
:109DE000DDE7002384F83130AAE7D4F8E41004F169
:109DF0003C0204F15400FFF7FDFE38B994F830102E
:109E000094F85400FFF7F8FE00289CD0F8BD94F8B1
:109E1000310098479AE70820F8E70388112B10B51E
:109E20000C460AD0262B1FD0102B05D1C27B83886D
:109E3000012A01D1A1F8E83010BD0022838881F801
:109E4000F220B1F8E8209A42F6D10B79002BF3D139
:109E500001212046FFF7E8FE0028EDD0A36B002B80
:109E6000EAD0BDE810401847037A013B012BE3D844
:109E7000897805230131B1FBF3F303EB8303C91A9E
:109E8000C9B2E6E7034B1A8882420CBF184600208D
:109E9000704700BF14250020024B9B6903B118478F
:109EA000704700BFF824002013B50B46497A0246DC
:109EB0000E4871B9D0E90141187A002808BF21463F
:109EC000586800F0F9FE78B102B0BDE81040FFF725
:109ED000E3BF00211972436933B101218DF80410E9
:109EE000ADF8062001A8984702B010BDF824002064
:109EF0004B8802889A4212D842889A420FD38088AF
:109F00008B8840F2F311884294BF021A421A9A4297
:109F100005D80844984234BF002001207047002033
:109F2000704700000388122B70B5014659D004D841
:109F3000102B1ED0112B44D070BD502BFCD12F4BB9
:109F4000C288DB899A42F7D1038A022BF4D1868832
:109F50003046FFF797FF05460028EDD001F11200CB
:109F600000F020F938BB686800F0D6FE0028E3D086
:109F70000AE0C37B8688012BDED14FF6FF70FFF726
:109F800081FF054620B90420BDE87040FFF784BF7B
:109F90001B4A0680002303721368C0F80A30536816
:109FA000C0F80E3010310A30FFF7A2FF134B687271
:109FB000DB89002BC0D129463046BDE87040FFF751
:109FC00073BF8088FFF75EFF04460028B4D0406866
:109FD00000F0A2FE08B1FFF75FFF4FF6FF7323808A
:109FE000AAE786883046FFF74DFF05460028A3D034
:109FF00008310A30FFF77CFF6872DCE7F8240020A4
:10A00000F02400200AB101F091B901F098B973B5BC
:10A010000191019C06466CB100252C46294601A8F9
:10A0200001F097F918B106EB440301349D80013526
:10A03000142DF3D13046346002B070BD2DE9F043E9
:10A0400003888488103B8DB00A2B1ED8DFE803F00C
:10A0500006361D1D1D1D1D1D1D5B3D002E4FBB68C1
:10A06000DB4300937968684601F09FF9009901A8E5
:10A07000FFF7CDFF0DF106080026019B9E4207D396
:10A08000132C12D9042000F0F5FC0DB0BDE8F083CC
:10A0900038F8029F00250135494607EB850001F09D
:10A0A0004EF91E2DF7D10136E7E721461B4801F096
:10A0B0003DF91B48214601F039F9E6E717482146EA
:10A0C0000DB0BDE8F04301F03AB9027A15483F2AD5
:10A0D0004FEA1215214694BF00220122FFF792FF9A
:10A0E000022D94BF002201220F482146FFF78AFF6C
:10A0F000012D0E4894BF0022012221460DB0BDE87B
:10A10000F043FFF77FBF037A002BBED1427A0548A8
:10A11000C2F3C0022146F1E72825002030250020A7
:10A120002C250020402500203C250020382500203B
:10A130001328014602D8024801F00BB900207047ED
:10A140002C25002010B50446FFF7F2FF002814BFAD
:10A150002046142010BD70B50546164608460AB9BB
:10A160000E2070BD00231360002DF9D02B68002B4A
:10A17000F6D0EB8813F003040ED1FFF7E3FFC0B273
:10A1800014280BD02B7983420AD9EA882B6800FB6C
:10A19000023333602046E4E70720E2E70520E0E7EA
:10A1A0000420DEE7008800F001007047A5DF70475B
:10A1B000B5DF704713B5034680880C4690B91A88FE
:10A1C0003A2A48D010D8102A3AD0112A3ED0A37A81
:10A1D00043B1E1880020FFF7E9FF002853D14FF495
:10A1E0008073638102B010BD552AF0D1DB88C98825
:10A1F000A072172B38BF17238B4228BF0B46238131
:10A20000FFF7D6FF60B101F03BFC2849284B5B1AF1
:10A21000DB081B040246274943F0010001F004FF5C
:10A22000E37A002BD3D1E368002BD0D040F677221D
:10A2300000922289ADF80420694620469847C6E777
:10A24000DB7B012BC3D10B88CB80C0E7F723CB800E
:10A2500017238B60BBE75B89CA88934228BF1346EC
:10A26000172BCA6838BF17230B814AB1C97A39B195
:10A2700040F677210091ADF80430694620469047BA
:10A2800000236381A3E71128ACD001F0F9FB074953
:10A29000074B5B1ADB081B040749024643F0010029
:10A2A00002B0BDE8104001F0BFBE00BF30CB0100DE
:10A2B00078CB0100E3CB010012CC0100B0DF704786
:10A2C00066DF704710B5002104464088FFF7F8FFAD
:10A2D000034608B9237210BD112801D10123F9E703
:10A2E0006368BDE81040184728B10378DE2B04D11D
:10A2F0004180002070470E20704708207047F0B55D
:10A30000054685B00C46002940D000283ED00B7889
:10A31000DE2B3BD182884B889A4204D10B7A13B151
:10A320000846FFF7CFFF2B88112B3BD0512B0FD0C6
:10A33000012B2BD12B7AAA88012B27D1618891423E
:10A3400024D12046237205B0BDE8F040FFF7BABF24
:10A35000AF886388BB4219D1AE79022E16D1AB7B90
:10A3600003F0FD02042A13D110220021684602F0F6
:10A3700075FB4FF4C0738DF80060ADF8043069468A
:10A380003846FFF79BFF08B16368984705B0F0BDFA
:10A39000052BFBD110220021684602F05FFB8DF8EF
:10A3A0000060ECE76388AA889A4204BF4FF6FF7307
:10A3B0006380EBE7ADDF7047F0B505468BB00C4628
:10A3C00000295FD000285DD00388502B35D0572B53
:10A3D0006AD0102B56D181886069002601AA0196A7
:10A3E000FFF7B9FE02232189A888ADF80A6002AA06
:10A3F000CDF80CD0ADF80830FFF7DCFF002841D1D4
:10A40000A369002B3ED00398FFF7CCFE002839D07B
:10A41000019E0EB1012333701822002104A802F01E
:10A420001DFB02238DF81030AB88ADF81830A369FE
:10A430000594079604A8984724E08188606902AAD9
:10A44000FFF789FE1822002104A802F007FBAB8861
:10A450002189ADF81830EB88029A05949942079249
:10A4600015D12E8A022E12D162B105F11200FFF72A
:10A4700099FE029B40B101221A70A3698DF8106009
:10A48000002BD7D10BB0F0BD18700326F5E7A289D9
:10A490009A42F7D1A369002BF4D005F11202089279
:10A4A0002A8AADF82420C5E78188606902AAFFF7EF
:10A4B00052FE01460028E5D1029F3B78002BE1D0F7
:10A4C000A669002EDED0182204A802F0C7FA0123E4
:10A4D0008DF81030AB880594ADF81830079704A8B4
:10A4E000B047CFE738B5074C051E04F1080318BF85
:10A4F0001C4623682BB11A6822605B68284698477F
:10A50000F7E738BDAC25002020B9054B01225A7071
:10A51000FFF7E8BF012802D1014A9070F8E77047C1
:10A52000A425002020B9034B01225A70FFF7DABF9F
:10A53000704700BFA425002038B50E4C2378B3B96E
:10A540000D486360A3602361E36000F075F8054681
:10A5500001F0AEFF08B900F07BF801232370074B30
:10A56000D3F800340BB10123A370284638BD8525EC
:10A57000F5E700BFA425002009A501000000014067
:10A5800037B50D4C00230DF107008DF8073000F0B2
:10A59000CFFCE368013BE360E36833B9074BD3F8D2
:10A5A000005415B900F066F8A5709DF8070000F09A
:10A5B000E3FC03B030BD00BFA42500200000014033
:10A5C000012813B50CD0032820D038B9134B012231
:10A5D000C3F88020BFF34F8FBFF36F8F02B010BD61
:10A5E0000F4C00230DF107008DF8073000F0A0FCA0
:10A5F00023780BB9FFF7A0FFE3689DF8070001334C
:10A60000E3600123A37000F0B7FCE7E700F020F857
:10A6100002B0BDE81040FFF7B3BF00BF00E100E0AB
:10A62000A425002000F18040002382B0036003686D
:10A630000193019B02B07047044B0246187918B988
:10A640001A6001221A71704785207047B8250020D2
:10A65000074B1A68D20704D4C02283F800230122D2
:10A660001A604FF080430122C3F81825704700BFDD
:10A6700000E100E04FF0804208B50223C2F8083341
:10A680004FF48270FFF7CEFF0123D360D2F8183465
:10A69000DB03FBD408BD00004FF0804210B5D2F8B8
:10A6A000003153B14FF48070FFF7BCFF0123C2F8B3
:10A6B00008330B4B00201B6898474FF08042D2F8BC
:10A6C000043163B14FF48270FFF7ACFF0223C2F88C
:10A6D0000833034BBDE810401B680120184710BD2C
:10A6E000B825002000F1804000F5C040002382B072
:10A6F000036003680193019B02B07047800000F182
:10A70000A040D0F8003723F44033C0F80037D0F829
:10A71000003743EA0143C0F800377047054B4FF05C
:10A72000FF32072843F8202084BF1B1883F83C2001
:10A73000704700BFC025002010B5184C94F8493070
:10A740004BBB4FF0FF3204F1240122FA03F0C007A3
:10A7500048BFCA540133202BF7D10021C8B20131C0
:10A76000FFF7DCFF0929F9D10D4B00221A600D4BD0
:10A77000C02183F80613402119604FF4BE70FFF723
:10A78000B1FF094B4FF00041C3F80413012384F8D3
:10A790004930104610BD0820FCE700BFC02500204E
:10A7A0000526002000E100E000600040F0B53B4ECF
:10A7B000331893F92430002B6DDA8F78C7F34007F4
:10A7C000002F15BF002308234FF0080C4FF0090C91
:10A7D000634501D10420F0BD56F8235001354FEAFE
:10A7E000830442D106EB000C5DB246F823208CF8BE
:10A7F000245017B9334483F83C008B785F0716D494
:10A80000DA0734D5830003F1A043D3F8002722F000
:10A810000202C3F80027224FC20800F0070C0123F0
:10A8200003FA0CF317F802C043EA0C03BB548B780D
:10A830000A789B0724D504F1804303F5C043000246
:10A84000D3F8101521F4473121F44071C3F81015E5
:10A850001204D3F8101500F4F85002F440321043FB
:10A860000843C3F810050020B5E70133B0E74A7884
:10A8700000F5E0734FF0A047920047F82320CAE7A5
:10A88000A5F1080346FA83F393F8441041EA8212D3
:10A8900083F84420E7E708209DE700BFC02500209B
:10A8A0000526002010B51F4C231893F92420072AF1
:10A8B00018DD083A44FA82F292F844309B09032BDF
:10A8C0000BD14FF0A043D3F81015C14001F00101A6
:10A8D0000231BDE81040FFF711BF012B0CBF022170
:10A8E0000321F6E7D3B2072B1AD8930003F1804374
:10A8F00003F5C043D3F8100540F00100C3F810057C
:10A9000002F1400040B2800080B2FFF7EBFE39B1A7
:10A9100054F8223023B101239340034AC2F8043390
:10A9200010BD00BFC0250020006000402DE9F341AC
:10A9300000244B4D01944FF48072012102F18043B9
:10A9400003F5C0431B68012B07D1D5F804330B4234
:10A9500003D090B2FFF7C6FE0C430432B2F5907FED
:10A960004FEA4101EAD13E4BD3F87C31012BE2B2F0
:10A9700029D14FF4BE70FFF7B5FE4FF0A043D3F8D6
:10A9800020150191C3F820150AB344F00044354F57
:10A9900000250126344210D0AB0003F1804303F5BB
:10A9A000C043D3F81005D3F8101557F8253023B15C
:10A9B000C1F30141C0F3042098470135082D4FEA47
:10A9C0004606E7D101E0002AE1D1002C19DA254F33
:10A9D0004FF0A04600224FF0010897F9441097F875
:10A9E000444001F0070324F0C00508FA03F3C4F360
:10A9F000C2004AB1D6F820350193C6F82035002BA5
:10AA0000E8D102B0BDE8F0814A1CF3D001AA125C83
:10AA10001A42EFD005F5E073284656F82320C2F31A
:10AA20000142022A0CBF03210221FFF767FE08FA48
:10AA300005F3C6F820357B1993F9243057F82330F5
:10AA400043B1A109032903D0022A05D1012901D16B
:10AA5000284698470122C0E7032AFBD10229F6E7DE
:10AA600000600040C0250020014B1B68184700BF54
:10AA70000C2600201FB50021039001AA44F201001A
:10AA8000CDE9011100F004F805B05DF804FB000009
:10AA900038B572B601F0DCFA01F07EF90028FBD17E
:10AAA000104B114C114D1249E41AE408240444F0EF
:10AAB000010001F0B5FAD5F8F030DB0700D500BE93
:10AAC0000C4944F0020001F0ABFABFF34F8FEA6883
:10AAD000094B02F4E0621343EB60BFF34F8F00BFFA
:10AAE000FDE700BF30CB010050CB010000ED00E0DE
:10AAF00080CC01008CCC01000400FA0510B5D0E92F
:10AB00000242D1E90203A04293412CBF0120002060
:10AB100010BD000008B50A4800F05FFB094AD2E901
:10AB20000031C018084BD3E9002341F100019042E5
:10AB300071EB030303D210F1807041F1000108BDF5
:10AB4000942300208826002080260020284B37B53B
:10AB50001D780446002D3FD000283DD0FFF7DAFFD6
:10AB6000D4E90223904299413AD300230DF1070022
:10AB70008DF8073000F0DCF923692BB94FF0FF3274
:10AB80004FF0FF33C4E902239DF8070000F0F4F909
:10AB9000D4E90530984700230DF107008DF8073000
:10ABA00000F0C6F923699DF807009BB1D4E90212B1
:10ABB000B2F1FF3F08BFB1F1FF3F0BD05B1842F18C
:10ABC0000002C4E9023200F0D7F90A48214600F039
:10ABD00016FF02E000F0D0F90025284603B030BD92
:10ABE000B3F1FF3F08BFB2F1FF3FF5D0EDE700BF83
:10ABF000902600209CCC010037B505460C460A483B
:10AC000001A900F01EFB68B10570446001A9064867
:10AC100000F041FB10B9002003B030BD034800F044
:10AC2000E1FAF8E70420F7E7182600209423002033
:10AC300013B5114B11491868019008231048582288
:10AC400000F0ECFA044698B90E4A0F4801A900F04A
:10AC5000B5F9044660B90C48012100F0A1FA0123BE
:10AC60000A4A0948194600F003FA094B01221A70F2
:10AC7000204602B010BD00BFB2CC01002826002043
:10AC80001826002075AD010094230020FFFF7F00EF
:10AC90009026002030B56AB103684FF0FF344FF0C2
:10ACA000FF355A614A1E5142C3E9024551411961BB
:10ACB000002030BD0720FCE7F7B5044600270DF162
:10ACC000070016460D468DF8077000F031F9D4E9FB
:10ACD0000223B3F1FF3F08BFB2F1FF3F15D1FFF7E9
:10ACE00019FF281841F10001C4E902019DF807008D
:10ACF00000F042F92369A66103B1256121460020D5
:10AD000003B0BDE8F040FFF777BF9DF8070000F003
:10AD100033F9384603B0F0BD37B5044600250DF1D0
:10AD200007008DF8075000F003F9D4E90223B3F1CE
:10AD3000FF3F08BFB2F1FF3F9DF807000ED04FF074
:10AD4000FF324FF0FF33C4E9022300F015F921462A
:10AD5000012003B0BDE83040FFF74EBF00F00CF912
:10AD6000284603B030BD0000014800F036BA00BFED
:10AD7000942300202DE9F743074600F019FA40B16B
:10AD8000634AD2E9003113F1807341F10001C2E955
:10AD900000310021384600F01AFA38B15D4C2368C2
:10ADA00023B12068FFF7D2FE00232360012138463B
:10ADB00000F00DFA20B1FFF7ADFE574BC3E90001DB
:10ADC0005648544E01A900F076FA4FF0FF344FF088
:10ADD000FF35A0B9DFF848814E4C404600F025FE13
:10ADE000002800F08A80D0E90223B3F1FF3F08BFBA
:10ADF000B2F1FF3F36D1404600F011FEEDE7037897
:10AE0000012B21D0022B09D1DFF81481404600F03C
:10AE100006FE20BB434B01221A700CE05BB941686F
:10AE2000D1E90223B3F1FF3F08BFB2F1FF3F02D0E7
:10AE30003B4800F0E4FD01A9384800F067FA01A999
:10AE4000364800F038FAC4E741683368994202D1C5
:10AE500000233360EFE7324800F0EAFDEBE7C0E99A
:10AE60000245D3E7216891B12168D1E9020182420C
:10AE70008B412CD22368D3E90223B3F1FF3F08BFF3
:10AE8000B2F1FF3F03D02168404600F0B8FD4046D4
:10AE900000F0C5FDD0E902590646FFF73BFE281A2F
:10AEA00069EB0109012879F1000915DBB0F5350FCF
:10AEB00010D3FFF759FF1C4A02441C484FF4960375
:10AEC000002100F0F5F878B9236893B1266003B04B
:10AED000BDE8F0832A46F0E71448002100F06DF940
:10AEE0003046FFF733FE01E00D28F9D00023236040
:10AEF00073E7384600F0B4F8E8E7064B1B68002B10
:10AF0000E5D1384603B0BDE8F04300F0ADB800BF6E
:10AF10008826002094260020802600201826002065
:10AF20009CCC010090260020FFFFB4009423002059
:10AF300070B5EFF3108672B60C4A9468012384B999
:10AF400093600B4B0B4DD3F8801029401160C3F870
:10AF50008050D3F8841051604FF0FF32C3F8842042
:10AF60002346037006B962B670BD00BF9826002064
:10AF700000E100E0FC06FFBD084B9A6810B55AB12D
:10AF800050B9EFF3108172B6054A1C6814605C6812
:10AF90005460986001B962B610BD00BF98260020C9
:10AFA00000E100E00346405882B028B100225A5028
:10AFB0005B580193019B012002B0704770B5204B94
:10AFC0004579204E43F825201F4B204A06EBC50546
:10AFD0009B1ADB08044618042B7933B140F00200B9
:10AFE0001B4901F01DF8082070BD23680A88C3F8CA
:10AFF000082594F904308A78002B4FEA4212D2B225
:10B0000019DB1449CD1885F8002301225D0903F0EE
:10B010001F0302FA03F341F82530637906EBC302FC
:10B020000121117140F003000B4946F8334000F054
:10B03000F7FF0020D8E7094903F00F03CA54ECE7F3
:10B04000AC260020A426002060CB010030CB0100FC
:10B05000B6CC010000E100E0D8CC010014ED00E026
:10B06000036801221A607047036801225A60704722
:10B0700073B501F15005AD000068ADB24FF48034F6
:10B080008C400026C0F80843C0F84843465101F5FB
:10B09000A8714559019522F07F42019D40F8212079
:10B0A000C0F844430BB1C0F8044302B070BD0000C7
:10B0B0002DE9F74F0D4622F07F4402684FF48037A8
:10B0C00005F150068F408046B60002EB8500C2F8BD
:10B0D0004873B6B2C2F80873D2F8041599464FF017
:10B0E000000BD0F84035C0F8401542F806B05B1AA6
:10B0F0009259009223F07F43012B009A4FEA850A70
:10B100000CD1264B4FF4806043F001039847D8F8E8
:10B11000003043F806B09B590193019BD8F80020FA
:10B12000D2F80465C2F84473A31B23F07F43012BBC
:10B130001CD11A4B05F5A875013443F0010342F800
:10B1400025404FF480609847D8F80030D3F8043594
:10B150009E4209D1D8F800300020C3F84473C3F8E8
:10B16000047303B0BDE8F08F0D20FAE79244C9F1F3
:10B17000FF13CAF84045D2F80405211A013921F01D
:10B180007F4103F57F438B42EED30029E2D10134A6
:10B19000CAF84045D2F804359842DAE7F0CC01000D
:10B1A00003680222C3F8442309B1C3F8042370479B
:10B1B00000684FF48271FFF7F5BE4FF4803303FA55
:10B1C00001F10368C3F84813C3F8081370475031FE
:10B1D0008900006889B2FFF7E5BE0368D3F804056B
:10B1E0007047000090F90430002B09DB5A09012157
:10B1F00003F01F03994002F14003024A42F8231072
:10B20000704700BF00E100E0024B034A1B68106872
:10B21000184700BFAC260020A426002010B561B15D
:10B22000B2FBF3F403FB1424A4B244B9C0E9001444
:10B2300084608281C381204610BD0E20FCE7092076
:10B24000FAE737B550E8013F9DB2C48925448489A7
:10B25000A54228BF2D1B0489A54202BFBFF32F8F33
:10B26000002207E0C5EA030540E80154002CE9D1BB
:10B270004FF001028DF803200193019A0A609DF8B6
:10B28000031001F0FF0321B1006810FA82F003B04F
:10B2900030BD1846FBE70A884B889A4209D150E82E
:10B2A000012FC2EA024240E80123002BF7D101201E
:10B2B00070470020704737B550E8023F1FFAA3F5EA
:10B2C000C488A54202BFBFF32F8F00220DE0C489BE
:10B2D00025448489A54228BF2D1BC3EA054540E8C3
:10B2E0000254002CE8D14FF001028DF803200193A5
:10B2F000019A0A609DF8031001F0FF0321B1006874
:10B3000000EB124003B030BD1846FBE70A884B88BB
:10B310009A4209D150E8022FC2EA224240E80223B1
:10B32000002BF7D1012070470020704701F01F0269
:10B330004B090121914000EB830000F01EB801F0A1
:10B340001F0301229A404B0900EB8300D14300F018
:10B350002CB84B0901F01F0150F82300C84000F041
:10B360000100704710B5034653E8000F0A4643E852
:10B37000002494F0000FF7D110BD10B5034653E838
:10B38000002F42EA010043E8000494F0000FF6D1D8
:10B3900010BD10B5034653E8000F00EA010243E870
:10B3A000002494F0000FF6D110BD10B5034653E809
:10B3B000002F02EA010043E8000494F0000FF6D1E8
:10B3C00010BD10B5034653E8002F02EB010043E81F
:10B3D000000494F0000FF6D110BD10B5034653E8F9
:10B3E000002FA2EB010043E8000494F0000FF6D117
:10B3F00010BD0121FFF7C1BF0021FFF7CABF73B520
:10B40000054600240DF107008DF80740FFF790FD79
:10B410002A68696813688B420ED9591E116013F8A7
:10B42000010CAB68EC682E8A5B1A1179DBB2994289
:10B4300038BF137106FB00449DF80700FFF79CFD21
:10B44000204602B070BD37B5054600230DF1070058
:10B450000C468DF80730FFF76BFD2A681368591CFE
:10B460001160EA68A41A2A8AB4FBF2F41C709DF8F1
:10B470000700FFF781FD03B030BD826810B50446B8
:10B480002AB143690168006998470023A36010BD91
:10B490000EB403B5039921B104AB01AA019300F0E6
:10B4A00077F802B05DF804EB03B070470A2938B5AD
:10B4B00004460D4602D10D21FFF7F8FFA36822686C
:10B4C000591CA160D554D4E901329A4204D32046D4
:10B4D000BDE83840FFF7D1BF38BD00002DE9F84F77
:10B4E0009946DDE90A431546824688460A46012701
:10B4F000AA420FD24F4538BF4F4613F0010B01D17E
:10B5000064B900240126B9F1010F1CD909F1FF39F2
:10B510006E43F8E70137B2FBF5F2E9E79B0710D578
:10B52000B9F1000F14BF20263026BC42EAD9013CF5
:10B5300031465046FFF7BAFF002CE2D0BC42F6D1AC
:10B54000E0E72026F1E7B8FBF6F39D42E0D9DFF80B
:10B550003C90B8FBF6F3504619F8031006FB13882D
:10B56000FFF7A4FF3346AB42B6FBF5F6F1D2BBF1D1
:10B57000000F00D034B9BDE8F88F20215046013CBF
:10B58000FFF794FFBC42F8D8F5E700BFF6CC010006
:10B590002DE9F74F064617468846002900F06C81D2
:10B5A00018F8011B49B9337B002B00F06581304648
:10B5B00003B0BDE8F04FFFF760BF252940F093804E
:10B5C000002598F800102D29424608F1010806D000
:10B5D000302907D02B2908D145F00405F1E745F0C3
:10B5E0000105EEE745F00205EBE72A2943461AD1AB
:10B5F0003B681A1D1C683A60424613782E2B21D1F5
:10B6000001324FF0000A4FF00A0C104610F8011BEF
:10B61000A1F1300EBEF1090F16D80CFB0A11A1F1F1
:10B62000300A0246F1E7002413F8011CA1F13000B2
:10B630000928E2D80A2202FB0411A1F130041A46BB
:10B640000133F1E74FF0000A12F8011B01F0FB0093
:10B6500068289046F8D0782909D86F290CD8632932
:10B660003DD021D825293ED0582900F0B18098F846
:10B670000030002B94D196E770390829F7D801A241
:10B6800052F821F04BB801006FB601006FB601000F
:10B69000E1B701006FB60100BFB701006FB601004E
:10B6A0006FB60100D1B70100642901D06929DED14C
:10B6B0003A68D2F800B0111D8BEAEB723960A2EB48
:10B6C000EB724FF001090A21092A10DCD14538BF7D
:10B6D000D1468CB90024BBF1000F25DA4BE03B6862
:10B6E0001A1D19783A603046FFF7E0FEBFE709F10E
:10B6F0000109B2FBF1F2E7E7BBF1000F05F002022E
:10B7000025DB680750D452B9E90740F1B18005F054
:10B710000302022A3FD1BAF1000F3CD10CE0BAF18A
:10B72000000F05D0EA0717D569072AD52B2125E098
:10B7300005F00302022A2ED1A1452CD2013C302172
:10B740003046FFF7B3FE2CB3A145F7D123E0013C0F
:10B7500072B9EB070FD474B14C45BCD9013C202120
:10B760003046FFF7A3FE002CB4D0A145F6D1B2E7D6
:10B77000BAF1000FEDD1CBF1000B2D213046FFF7D0
:10B7800095FE05F00302022A05D1BAF1000F02D19D
:10B79000002CD1D10024CDE9004553460A22594658
:10B7A0003046FFF79BFE62E7013C22B9E807BBD4B5
:10B7B000002CD1D1B8E7BAF1000FB5D0F6E739685F
:10B7C0000A1D3A60CDE9004553460A220968E7E7B9
:10B7D00039680A1D3A605346CDE900451022F5E765
:10B7E0003B681A1D3A6015F00105D3F8009024D18A
:10B7F000B9F1000F03D0484601F0E8F80546AC4225
:10B800001DD809F1FF3919F8011F00293FF42FAFA6
:10B810003046FFF74BFEF6E730460135FFF746FEB0
:10B8200019F805100029F7D1A542BFF420AF202157
:10B830003046013CFFF73AFEF6E70025F0E720210D
:10B840003046013CFFF732FED9E73B681A1D3A60EB
:10B85000302130461C68FFF729FE78213046FFF77B
:10B8600025FE00220823CDE900322146102297E769
:10B870004C453FF673AF57E703B0BDE8F08F00BF0C
:10B880002DE9F84FB0F806A04579D2F800B09DF840
:10B8900028900AFB05F5043D88460BEB0301A942FD
:10B8A00003F1040488BFA5EB030BB4FBFAF60746CB
:10B8B0000AFB1644C2F800B04EB9AAEB04055D4578
:10B8C00028BF5D46BBF1000F04D1BDE8F88F3F688B
:10B8D000013EF1E7043408EB06003C442A46B9F186
:10B8E000000F0DD02146ABEB050B01F085F8DA45D2
:10B8F0002E443F6855464FF0000428BF5D46E1E7FF
:10B9000001462046EFE7F8B546790146721E054626
:10B91000002393422D6803D30024A64202D8F8BD29
:10B920000133F6E70F682846FFF78DFD01343946ED
:10B93000F3E72DE9F041078ACD1C0646FFF75FFDCE
:10B94000043F3D440446B5FBF7F5D0B14FF4807396
:10B95000EDB2C7808380013D066080460027AF427C
:10B9600010D23046FFF74BFD40B16379013363716C
:10B970000137C8F8000006608046F0E72046FFF770
:10B98000C2FF00242046BDE8F08101210430FFF70A
:10B9900018BD10B5012104460430FFF71EFDC0B2EA
:10B9A00020B92046BDE81040FFF7ADBF10BD1FB560
:10B9B00003920022009203AAFFF762FF05B05DF830
:10B9C00004FB1FB503920122009203AAFFF758FF60
:10B9D00005B05DF804FBD1E90032934208BF0023B3
:10B9E000016043607047436843B1026891685268E0
:10B9F0000B449342436004BF00234360704770B51B
:10BA0000446806460D46206818B1B3682946984731
:10BA100018B923682B60256070BD2468F3E743687C
:10BA2000186808B102681A60704743681868704760
:10BA30004368186800B97047884203D102681A60E9
:10BA40000120704703460068F4E7000010B50B4A78
:10BA5000A2F594739A4201D800200CE0D11A091182
:10BA600003EBC10453F83110814205D802D204F12E
:10BA70000803EFE7606810BD2246EBE7FCD1010048
:10BA800008B5FFF7E3FF024B002808BF184608BDC2
:10BA9000FCD101007047000007B5044B0093044A35
:10BAA000402300F032F803B05DF804FBB5BA0100A2
:10BAB000B02600202DE9F84388461446B2B1104B59
:10BAC000104D0326002743F00109224608EB070129
:10BAD000002000F039FC0744241A60B92B782BB100
:10BAE0004FF47A40C847013E02D12E70BDE8F8837A
:10BAF00001232B70E9E701232B70002CE5D1F5E73A
:10BB000010D20100F02600207047F0B595B01D4618
:10BB1000164608460C46FFF738FF1A9B0D93CDE9F1
:10BB2000086500252B46082205A920460A958DF8B0
:10BB30002C500C95FFF745FF079B0293069B039340
:10BB40009DF814308DF8115003F00302012A1DD125
:10BB5000BDF81420059DC3F3C203C2F383168DF80C
:10BB60001030B20008230EA92046FFF72AFFC5F3C4
:10BB7000952508AB0093324602AB0EA9284600F08B
:10BB8000D5FA2046FFF705FF15B0F0BD022AF8D11F
:10BB9000BDF81650C3F3C203C5F389158DF81030F4
:10BBA0000827082D2E4628BF08263B4632460EA9F8
:10BBB0002046FFF706FFAD1B08AB02AA31460EA8D0
:10BBC000374400F017FB002DEBD1DAE7037813F0D0
:10BBD000040215D003F00303012B03D0022B09D07C
:10BBE000012070470B6802880233C2F383121344AA
:10BBF0000B60F5E70B684288023303EB9213F7E71B
:10BC0000104670472DE9F04F434C87B0884600231B
:10BC10000546871C0DF1070016468DF80730FFF723
:10BC200087F96268C8F80020A36803F580739B1A3F
:10BC300004F21C4804F5836A04F21449BB4218D389
:10BC40000021002E64D005F00F05AD0145F005057B
:10BC500065F30F0163689DF80700DAB203323B44D5
:10BC600044F822106360FFF787F9012007B0BDE8B0
:10BC7000F08F01214046FFF7A4FB5046FFF7B9FBC8
:10BC80004846FFF7B6FBA0680290C0B2033004EB51
:10BC9000800002A9FFF79AFF20BB029BDAB204EBF7
:10BCA0008202D16803919A1C0133DBB204EB830357
:10BCB0000292D3F80CB001F00303012B20D0022B29
:10BCC00013D083464846FFF797FB08B1029BA36059
:10BCD00059464046FFF775FBA368626803F5807319
:10BCE0009B1AABE79DF80800D0E7BDF80E30C3F310
:10BCF000891303334FEA1B4B02EB93030293E1E7F3
:10BD0000BDF80C30C3F383134FEA1B4B1344F5E724
:10BD1000AD0545F006019DE7F426002030B50A4C3C
:10BD200071B10A4A0A49121BD20800239A4201D172
:10BD3000002030BD31F82350854202D00133F5E7B1
:10BD4000034654F83300F4E730CB0100A8CB0100E0
:10BD5000C8220020094B013903EBC000032909D890
:10BD6000DFE801F0020A04060220704700797047FC
:10BD700040797047002070470420704730CB0100A5
:10BD800070470000034BD3E90130C31A58425841B1
:10BD9000704700BFF42600202DE9F04387B0FFF77D
:10BDA000F1FF002874D1744CC4F81804BFF34F8F0E
:10BDB000A0680290C0B2033004EB800002A9FFF734
:10BDC00005FF029B18B1D4F81824002A5CD0DAB21F
:10BDD0009F1C013304EB8202DBB204EB8303D268C5
:10BDE000DB68049302F00303022B0392029758D1FD
:10BDF000BDF80E306148C3F389184646502E28BF5F
:10BE0000502666F38F1306F10801ADF80E30FFF7E8
:10BE100090FD0546002800F09980FFF7B6FD00234D
:10BE200003A908222846FFF7C2FDFB43DBB201331A
:10BE3000F9B20331B6EB830F4FEA830904EB8101BA
:10BE40002CD908234A46A6EB09062846FFF7AFFD82
:10BE5000F6B24B4909F10803324608F103082846B7
:10BE600007EB9807FFF7A3FD0297D4F81834D4F82E
:10BE70001064002B55D02846FFF78BFDFFF782FF9B
:10BE800080F00100C0B204E062689A4204D8A26067
:10BE9000002007B0BDE8F083D8B28CE70823324613
:10BEA000DBE7012B52D1BDF80C303448C3F38311CA
:10BEB000062928BF062161F38913023101F00F0121
:10BEC0008900ADF80C30FFF734FD054600283DD061
:10BED000FFF75BFD0023082203A92846FFF767FD53
:10BEE0000026BDF80C20C2F38312B300B24203F166
:10BEF0000803BAD902994A1CC9B20331029204EB71
:10BF0000810104222846FFF752FD0136E9E7F36874
:10BF10005B7923B1336829461B6830469847F3683C
:10BF20001E68002EF3D12846FFF733FD0DF1070000
:10BF30008DF80760FEF7FCFFD4F818340BB9029BAC
:10BF4000A3609DF80700FFF717F897E7D4F81044AF
:10BF500054B90C4B0C480D49C01AC008000440F0FD
:10BF6000020000F05DF889E7236820469B68984747
:10BF7000E3681C68ECE700BFF42600201CCB01003E
:10BF80000027002030CB010050CB010034D201004B
:10BF90002DE9F34704460E46924601A901221846B0
:10BFA0009946FFF72FFE1C4F10B3019D4FF000087C
:10BFB000AA1CC84508EB020125D118480021FFF74B
:10BFC000D1F980F31000000440EA1440E4006B1C37
:10BFD00004F03804DBB2EDB244F0010407EB830354
:10BFE000033544EA881444EA8624D86047F825409B
:10BFF0003B781BB1FFF7D0FE0028FBD1FFF7C0FE56
:10C0000002B0BDE8F087C9B207EB81015AF82830C9
:10C01000CB6008F10108CCE7F4260020102B0020AB
:10C0200000231A46FFF7B4BF07B50123019201AA06
:10C03000FFF7AEFF03B05DF804FB07B5CDE90023C1
:10C0400002236A46FFF7A4FF03B05DF804FB00007B
:10C0500038B5084B0125D3F810441D7004B938BD1C
:10C06000E3685D71236820465B689847E3681C6855
:10C07000F4E700BFF426002010B5037A052B0C4628
:10C080000FD0437A23B1084A08492046FFF700FA47
:10C0900007492046FFF7FCF92046BDE81040FFF7AE
:10C0A000ECB9002AF8D0F3E749D201004ED20100E2
:10C0B0006ED20100C38873B504460D4633B1144AED
:10C0C00000921449144A2846FFF7E2F9217A05291B
:10C0D0001CD0637A4BB1A088FFF73CFE0F4B104990
:10C0E00053F820202846FFF7D3F9227A0D4BA08879
:10C0F00053F822600021FFF711FE0B490346324638
:10C10000284602B0BDE87040FFF7C2B902B070BD6A
:10C1100049D2010059D2010051D20100D8D2010008
:10C120004ED20100FCD2010071D201002DE9F04392
:10C1300085B01F460C9D002395F80C902B73064686
:10C140000C46904629463846FFF7B4FFB8F1060F73
:10C1500009D8DFE808F00412181F283340003146E0
:10C160002846FFF795F9002229463846FFF784FF55
:10C1700085F80C9005B0BDE8F0832268314628466A
:10C18000FFF786F9EFE7D4E9002331462846FFF7A9
:10C190007FF9E8E7A3680093D4E9002331462846F5
:10C1A000FFF776F9DFE7E3680193A3680093D4E92A
:10C1B000002331462846FFF76BF9D4E72369029341
:10C1C000E3680193A3680093D4E90023314628462D
:10C1D000FFF75EF9C7E76369039323690293E36896
:10C1E0000193A3680093D4E9002331462846FFF762
:10C1F0004FF9B8E708292DE9F84F80460E46174653
:10C200001C463BD8002593F80C901D731946104628
:10C21000FFF750FFDFF880A0DFF880B0AE422FD9E3
:10C2200018F8052059462046FFF732F90135082D48
:10C23000F4D11B49DFF86CB02046FFF729F94FF025
:10C24000000A564523D918F80A507E2D1DD82846D5
:10C2500000F0DDFA002814BF2A462E225946204657
:10C26000FFF716F90AF1010ABAF1080FE9D1012224
:10C2700021463846FFF700FF84F80C90BDE8F88FA0
:10C2800051462046FFF704F9D0E72E22E6E706499B
:10C290002046FFF7FDF8E5E781D201007BD20100DF
:10C2A00085D2010087D2010083D201000369C268F0
:10C2B00093429CBF81685B18013B981A70472DE937
:10C2C000F041D0E902840546A8EB04064068964296
:10C2D00020440F46144404D900F08EFBEC60BDE806
:10C2E000F0813246A4EB080400F086FB6868224621
:10C2F000B919F1E72DE9F843C5680646894617469E
:10C300004FF000083369B46870689D4228BF1B195C
:10C31000641BBC4203F1FF3328BF3C465B1B9C42BD
:10C3200028BF1C4649462844224600F065FBB368F6
:10C330002544AB4208BF00253F1BA044A144F56043
:10C34000E0D14046BDE8F883F8B5144B182700FB50
:10C3500007751D4407FB00330E46DB6A012B1446AC
:10C360000AD0022B14D023B92846FFF79FFF84423E
:10C3700008D900242046F8BD2846FFF797FF8442DD
:10C3800028BF0446224631462846FFF798FFF1E7CA
:10C390002846BDE8F840FFF7ADBF00BFE42B002002
:10C3A00010DF704713B5044609496846FFF713FBD1
:10C3B000019808B902B010BDD0E900312046984775
:10C3C00018B16846FFF70FFBF2E71120F2E700BF54
:10C3D00028D3010013B5044607496846FFF7FBFA66
:10C3E000019B0BB902B010BD2046D3E90021904754
:10C3F0006846FFF7F8FAF3E71CD301000B4991F800
:10C400001623EC2352091341DB0706D5084B9A6823
:10C410003AB94FF480030B60704742F20200FEF716
:10C4200029BB1A6842F480021A60704700E100E0FC
:10C4300098260020F7B5194F3C786CBB184E0125A3
:10C4400020463570FFF7AEFF112821D02046FFF7B8
:10C45000C1FF144B8DF80340186801900DF10300E3
:10C46000FEF766FD104901A8FFF79AFF0446B0FAEF
:10C4700080F0400938709DF80300FEF77DFD44B957
:10C480000A4B34701C70FFF7B9FF2846FFF7A2FF74
:10C490000024204603B0F0BD0824FAE75E2C0020FB
:10C4A0005C2C00203CD3010091AA01005D2C0020EF
:10C4B000014B1878704700BF5E2C002007B5084973
:10C4C0006846FFF788FA019B13B903B05DF804FBD7
:10C4D000D3E9002090476846FFF785FAF3E700BFED
:10C4E00010D30100FFF7EABF60DF704769DF7047D4
:10C4F00061DF704730B5134DADF5017D4FF4FA742F
:10C500000DF1020103A8ADF80240FFF7F1FF70B989
:10C51000294601A8FFF75FFA029B002BF0D003A881
:10C52000D3E90021904701A8FFF75DFAF4E7052859
:10C5300005D00DF5017DBDE83040FEF79BBA0DF545
:10C54000017D30BDB0D50100024B1B780BB1FFF768
:10C55000D1BF70475F2C002030B5054685B00C4632
:10C56000002900F0A3800023CDE90133504A039352
:10C5700001230A608DF804008DF8063001A9062316
:10C580002020ADF80830FFF7B1FF60B1FFF778FA6F
:10C590004849494B5B1ADB081B040246474943F0F4
:10C5A0000100FFF741FD0023CDE901330393226829
:10C5B000012301A940208DF80530FFF797FF60B1F6
:10C5C000FFF75EFA3B493C4B5B1ADB081B04024653
:10C5D0003B4943F00100FFF727FD0023CDE901337C
:10C5E000039322688DF80450F72301A92320ADF8A6
:10C5F0000630FFF77BFF60B1FFF742FA2D492E4B63
:10C600005B1ADB081B0402462E4943F00100FFF7CA
:10C610000BFD002301202268039301A9CDE901331A
:10C620008DF80400FFF762FF60B1FFF729FA214996
:10C63000214B5B1ADB081B040246234943F001002F
:10C64000FFF7F2FC0023CDE9023322684FF4B06318
:10C6500001A9A1200193FFF749FF60B1FFF710FA8C
:10C660001449154B5B1ADB081B040246174943F0BB
:10C670000100FFF7D9FC00232268039301A9A02041
:10C68000CDE90133FFF732FF10B9002005B030BD0E
:10C69000FFF7F6F90749084B5B1ADB081B04024653
:10C6A0000B4943F00100FFF7BFFCEEE70E20EDE77A
:10C6B000C822002030CB010088CB010040D301000C
:10C6C00086D30100D2D3010019D4010065D4010042
:10C6D000B6D40100F8B506460768FFF705FF3368D2
:10C6E000BB4205461DD9194B194C1A49E41AE408F6
:10C6F000240444F002042046FFF792FC33681649F4
:10C700003A462046FFF799FC4FF080533268D3F841
:10C710000C3112499B0203F100539A1A2046FFF78D
:10C7200083FC25B90E4B01221A702846F8BD284615
:10C73000FFF7A6F90549064B5B1ADB081B04024606
:10C74000084943F00100FFF76FFCEEE730CB010032
:10C7500088CB010009D5010038D5010069D5010059
:10C760005F2C002093D501004BDF70471FB50E4CA6
:10C7700001A8FFF7F9FF70B9214602A8FFF72BF9CE
:10C78000039B002BF4D00198D3E90021904702A825
:10C79000FFF729F9F4E7052804D004B0BDE81040FC
:10C7A000FEF768B904B010BDC8D50100844600206A
:10C7B000002918BF002A00D17047097848B2002824
:10C7C00044BF6FF001007047BCF1000F18BFCCF8F8
:10C7D00000100021C3E90011002818BF0120704794
:10C7E0007F298EBF6FF0010001700120704742F673
:10C7F0006042C2F200021368002B02BF42F2A4336F
:10C80000C2F2000313605A68926812681047092147
:10C81000FFF7EDBF7F2884BF002070474DF2747290
:10C82000C0F20102105C4DF2F472C0F20102515CE0
:10C8300008407047A0F161011A2938BF20387047BD
:10C84000A0F141011A2938BF203070477F2884BFEA
:10C85000002070474DF27472C0F20102105C4DF27C
:10C86000F472C0F20102515C08407047A0F161010E
:10C870001A2938BF20387047A0F141011A2938BF62
:10C8800020307047002B35D129B9B0FBF2FC0CFBEE
:10C89000120260467047914215D22DE9F041B2FA7A
:10C8A00082F39A409940D3F1200C30FA0CFC51EA03
:10C8B0000C01984000F04EF8280036FA03F20021EF
:10C8C0000023BDE8F081F0B5B1FBF2FC0CFB1211C6
:10C8D000B2FA82F39A409940D3F1200630FA06F674
:10C8E0003143984000F036F8614628003200DA40C3
:10C8F0000023F0BDF3B5B3FA83FC49085FEA3000CA
:10C9000013FA0CF3DCF1200432FA04F423430CB4E0
:10C910001A0000F01FF80CBC33FA0CF3DCF11F0C0A
:10C9200035FA0CF518BF013D03BCA5FB026705FBFA
:10C930000377801BB941904271EB030C05D3821A37
:10C9400071EB0303681C0021F0BD02000B002800FE
:10C950000021F0BD940D4FF6C2752D02B5FBF4F425
:10C96000D60A013604FB04F5A5FB0656F64306EB92
:10C970000416550832BF00277708013505FB1677E6
:10C98000A6FB07477F0807EBC63714001500E7FB37
:10C9900002457F1B4D1C0400E7FB014505FB120609
:10C9A000A64284BF013DB618964224BF0135B61A8F
:10C9B000704700BF082938BF70470022C0E9002136
:10C9C00042F66441C2F20001086070470178002914
:10C9D00004BF0020704700214FF001324358C2FAD3
:10C9E00053F30431002BF9D093FAA3F0B0FA80F09E
:10C9F00001EBD000043870475AB3844690EA010333
:10CA00009B071FD1830707D011F8013B00F8013BBA
:10CA1000013AF7D11CE08446203A09D32DE9F0070A
:10CA2000B1E8F807A0E8F807203AF9D2BDE8F00726
:10CA30001C3205D451F8043B40F8043B043AF9D2C7
:10CA4000043205D011F8013B00F8013B013AF9D15D
:10CA50006046704700220B0011001A0084465AB34A
:10CA6000830704D000F8011B013AF9D124E0C9B2D0
:10CA700041EA012141EA0141202A11D3203A2DE95E
:10CA8000F0030B460C460D460E460F468846894677
:10CA9000A0E8FA03203AFBD2BDE8F00320320BD025
:10CAA000042A05D340F8041B043A05D0042AF9D21D
:0CCAB00000F8011B013AFBD16046704702
:08CABC0025A5010000000000A7
:10CAC4003DA00100000000001B9E0100B8230020CF
:10CAD400B5A10100BC240020B199010000000000B0
:10CAE400259F010000000000FFA20100B0240020E7
:10CAF400B9A301002C230020E193010000000000F1
:08CB0400C1A5010000000000C2
:10CB0C0049C50100000000006DC7010000000000D5
:10CB1C00142B0020DC2B0020E42B00201C2B0020ED
:04CB2C0018000000ED
:10CB30005ECC01000000000064CC01000000000099
:10CB40006BCC0100000000006FCC01000000000071
:10CB500045D201000000030375CC01000000000075
:10CB6000A8CC01000000000050CC01000000000033
:10CB700058CC01000000000043CC0100000003037A
:10CB800034D3010000000303BCD5010000000303FF
:10CB9000D4D501000000030306CD01000000000011
:08CBA0000FCD010000000000B0
:10CBA80018D201000000000024D201009C230020BC
:10CBB800436F6E6E656374656400446973636F6E7A
:10CBC8006E65637465640000C8220020E8220020B6
:10CBD800082300200100021112131473645F626CB1
:10CBE800655F67617474735F65786368616E6765B4
:10CBF8005F6D74755F7265706C7928292072657431
:10CC080075726E65642025732E0073645F626C65AF
:10CC18005F67617474635F65786368616E67655F99
:10CC28006D74755F726571756573742829207265F6
:10CC38007475726E65642025732E006E72665F626D
:10CC48006C655F6761747400626C655F6E75730014
:10CC5800636C6F636B00434C4F434B004750494F25
:10CC6800544500505253005541525445006170706C
:10CC78005F627574746F6E00466174616C206572D2
:10CC8800726F720053797374656D20726573657481
:10CC9800000000000000000014260020FDAA01008A
:10CCA8006170705F74696D6572000100060052540E
:10CCB8004320696E7374616E636520616C7265618F
:10CCC800647920696E697469616C697A65642E009B
:10CCD8005254433A20696E697469616C697A656473
:10CCE8002E000000000000000338FDD870473031E6
:10CCF8003233343536373839414243444546707704
:10CD0800725F6D676D7400736F72746C6973740011
:10CD18004E52465F53554343455353004E52465F68
:10CD28004552524F525F5356435F48414E444C451B
:10CD3800525F4D495353494E47004E52465F455244
:10CD4800524F525F534F46544445564943455F4EF0
:10CD58004F545F454E41424C4544004E52465F4554
:10CD680052524F525F494E5445524E414C004E521A
:10CD7800465F4552524F525F4E4F5F4D454D004EF4
:10CD880052465F4552524F525F4E4F545F464F5581
:10CD98004E44004E52465F4552524F525F4E4F54DA
:10CDA8005F535550504F52544544004E52465F45CC
:10CDB80052524F525F494E56414C49445F5041527E
:10CDC800414D004E52465F4552524F525F494E56B2
:10CDD800414C49445F5354415445004E52465F45C7
:10CDE80052524F525F494E56414C49445F4C454E52
:10CDF800475448004E52465F4552524F525F494E83
:10CE080056414C49445F464C414753004E52465F99
:10CE18004552524F525F494E56414C49445F444136
:10CE28005441004E52465F4552524F525F4441545E
:10CE3800415F53495A45004E52465F4552524F5240
:10CE48005F54494D454F5554004E52465F45525226
:10CE58004F525F4E554C4C004E52465F4552524F12
:10CE6800525F464F5242494444454E004E52465F37
:10CE78004552524F525F494E56414C49445F4144D6
:10CE88004452004E52465F4552524F525F425553EC
:10CE980059004E52465F4552524F525F434F4E4ED5
:10CEA8005F434F554E54004E52465F4552524F52C3
:10CEB8005F5245534F5552434553004E52465F45C6
:10CEC80052524F525F4D4F44554C455F4E4F545F41
:10CED800494E495449414C495A4544004E52465FCF
:10CEE8004552524F525F4D555445585F494E49542B
:10CEF8005F4641494C4544004E52465F4552524FA9
:10CF0800525F4D555445585F4C4F434B5F4641491E
:10CF18004C4544004E52465F4552524F525F4D5564
:10CF28005445585F554E4C4F434B5F4641494C451D
:10CF380044004E52465F4552524F525F4D5554453C
:10CF4800585F434F4E445F494E49545F4641494CF0
:10CF58004544004E52465F4552524F525F4D4F4432
:10CF6800554C455F414C52454144595F494E4954DF
:10CF780049414C495A4544004E52465F4552524F2A
:10CF8800525F53544F524147455F46554C4C004EF3
:10CF980052465F4552524F525F4150495F4E4F547F
:10CFA8005F494D504C454D454E544544004E524600
:10CFB8005F4552524F525F464541545552455F4E68
:10CFC8004F545F454E41424C4544004E52465F45E2
:10CFD80052524F525F494F5F50454E44494E4700A9
:10CFE8004E52465F4552524F525F4452565F545715
:10CFF800495F4552525F4F56455252554E004E5268
:10D00800465F4552524F525F4452565F5457495FEC
:10D018004552525F414E41434B004E52465F455286
:10D02800524F525F4452565F5457495F4552525FC0
:10D03800444E41434B004E52465F4552524F525F59
:10D04800424C455F495053505F52585F504B545FB4
:10D058005452554E4341544544004E52465F455242
:10D06800524F525F424C455F495053505F434841CD
:10D078004E4E454C5F414C52454144595F455849D5
:10D08800535453004E52465F4552524F525F424CE2
:10D09800455F495053505F4C494E4B5F4449534399
:10D0A8004F4E4E4543544544004E52465F455252FA
:10D0B8004F525F424C455F495053505F504545526F
:10D0C8005F52454A454354454400000000000000B3
:10D0D80018CD01000100000024CD0100020000006D
:10D0E80042CD01000300000063CD010004000000F0
:10D0F80076CD01000500000087CD01000600000084
:10D108009BCD010007000000B3CD0100080000001E
:10D11800CBCD010009000000E3CD01000A000000AA
:10D12800FCCD01000B00000014CE01000C00000033
:10D138002BCE01000D0000003FCE01000E000000C4
:10D1480051CE01000F00000060CE01001000000069
:10D1580074CE0100110000008BCE01001200000007
:10D168009ACE010013000000AFCE0100800000003D
:10D17800C3CE010081000000E4CE0100820000005F
:10D1880000CF0100830000001CCF010084000000D4
:10D198003ACF0100850000005BCF01008600000047
:10D1A80080CF01009000000097CF0100910000009F
:10D1B800B5CF010092000000D3CF0100008200002B
:10D1C800E8CF01000182000006D0010002820000C1
:10D1D80022D00100008400003ED00100018400003C
:10D1E80062D00100028400008CD00100038400009A
:10D1F800B1D00100556E6B6E6F776E206572726FDD
:10D208007220636F646500000338FDD87047000022
:10D2180099BA010009BB010095BA01007274745FE4
:10D228006C6F675F6261636B656E64004261636B1C
:10D23800656E647320666C757368656400617070F0
:10D24800001B5B306D002573001B5B313B33316D78
:10D258000025734C6F67732064726F70706564206B
:10D268002825642925730D0A003C25733E20257363
:10D278003A2000202530327800202020007C00252C
:10D2880063001B5B313B33306D001B5B313B33323A
:10D298006D001B5B313B33336D001B5B313B33341B
:10D2A8006D001B5B313B33356D001B5B313B333607
:10D2B8006D001B5B313B33376D007761726E696EB1
:10D2C8006700696E666F006465627567000000003C
:10D2D80049D201008AD2010051D2010092D2010044
:10D2E8009AD20100A2D20100AAD20100B2D2010052
:10D2F800BAD201000000000086CC0100C2D20100B1
:10D30800CAD20100CFD201000CCB01001CCB010016
:10D318000800000004CB01000CCB0100080000004D
:10D328001CCB01001CCB0100080000006E72665F78
:10D33800736468000010020173645F626C655F6368
:10D3480066675F73657428292072657475726E65E7
:10D3580064202573207768656E20617474656D702C
:10D3680074696E6720746F2073657420424C455F42
:10D37800434F4E4E5F4346475F4741502E0073640C
:10D388005F626C655F6366675F73657428292072E6
:10D39800657475726E6564202573207768656E20E4
:10D3A800617474656D7074696E6720746F2073653D
:10D3B8007420424C455F4741505F4346475F524F98
:10D3C8004C455F434F554E542E0073645F626C6545
:10D3D8005F6366675F736574282920726574757268
:10D3E8006E6564202573207768656E2061747465A6
:10D3F8006D7074696E6720746F2073657420424C79
:10D40800455F434F4E4E5F4346475F474154542E56
:10D418000073645F626C655F6366675F7365742839
:10D42800292072657475726E65642025732077688B
:10D43800656E20617474656D7074696E6720746FB1
:10D448002073657420424C455F434F4D4D4F4E5FEE
:10D458004346475F56535F555549442E0073645FF2
:10D46800626C655F6366675F7365742829207265FF
:10D478007475726E6564202573207768656E206107
:10D488007474656D7074696E6720746F2073657449
:10D4980020424C455F47415454535F4346475F41E0
:10D4A8005454525F5441425F53495A452E007364A5
:10D4B8005F626C655F6366675F73657428292072B5
:10D4C800657475726E6564202573207768656E20B3
:10D4D800617474656D7074696E6720746F2073650C
:10D4E8007420424C455F47415454535F4346475F5D
:10D4F800534552564943455F4348414E4745442E9C
:10D5080000496E73756666696369656E7420524179
:10D518004D20616C6C6F636174656420666F722066
:10D5280074686520536F66744465766963652E0078
:10D538004368616E6765207468652052414D2073A9
:10D5480074617274206C6F636174696F6E206672A7
:10D558006F6D203078257820746F20307825782EEC
:10D56800004D6178696D756D2052414D2073697A5F
:10D578006520666F72206170706C69636174696F91
:10D588006E20697320307825782E0073645F626C92
:10D59800655F656E61626C652829207265747572B5
:10D5A8006E65642025732E00C4CA010004CB0100F7
:10D5B800080000006E72665F7364685F626C6500E5
:10D5C800BCCA0100C4CA0100080000006E72665F90
:10D5D8007364685F736F6300ECD501001CD70100AA
:10D5E800F0D501004300000015C8010035C801004E
:10D5F80041C801004DC801006DC8010079C801008B
:10D60800E1C70100ADC7010053756E004D6F6E0094
:10D618005475650057656400546875004672690062
:10D6280053617400004A616E00466562004D617284
:10D6380000417072004D6179004A756E004A756C40
:10D648000041756700536570004F6374004E6F7634
:10D658000044656300002E000053756E6461790014
:10D668004D6F6E6461790054756573646179005714
:10D6780065646E657364617900546875727364617A
:10D6880079004672696461790053617475726461E6
:10D698007900004A616E756172790046656272753B
:10D6A800617279004D6172636800417072696C0043
:10D6B8004D6179004A756E65004A756C790041754F
:10D6C800677573740053657074656D626572004F99
:10D6D80063746F626572004E6F76656D6265720085
:10D6E800446563656D6265720000414D00504D00F0
:10D6F80000256D2F25642F25790025483A254D3AB8
:10D7080025530025612025622025652025542025E4
:10D71800590000005ED6010060D6010060D6010005
:10D7280060D6010060D6010060D6010060D6010015
:10D7380060D6010060D6010060D60100FFFFFFFF40
:10D74800FFFFFFFFFFFFFFFFFFFF000061D60100A3
:10D7580010D601009BD601002DD60100F2D601009B
:10D76800F9D6010002D701000BD7010020202020A4
:10D778002020202020682828282820202020202039
:10D788002020202020202020202020204810101099
:10D7980010101010101010101010101084848484B1
:10D7A8008484848484841010101010101081818166
:10D7B80081818101010101010101010101010101D1
:10D7C8000101010101010110101010101082828264
:10D7D80082828202020202020202020202020202A1
:10D7E8000202020202020210101010200007032099
:09D7F800041702010857104080DB
:10D804000000000000000000FFFFFFFFFFFFFFFF1C
:10D814000000000000000000000000000000000004
:10D824000000000000000000FFFFFFFFFFFFFFFFFC
:10D8340000000000000000000000000000000000E4
:10D844000000000000000000FFFFFFFFFFFFFFFFDC
:10D8540000000000000000000000000000000000C4
:10D86400FFFF0000000000000000000000000000B6
:10D874000000000000000000482300200000000019
:10D88400CC2400200100040000000000000000007F
:10D89400FFFFFFFFFFFFFFFF00000000000000008C
:10D8A4000000000000000000000000000000000074
:10D8B400FFFFFFFFFFFFFFFF00000000000000006C
:10D8C40000000000000000000090D00300100140A0
:10D8D4001100040000000000FF000000E0D501007A
:10D8E400E0D50100E0D50100E0D50100E0D501005C
:04000003100092193E
:00000001FF
